:020000040800F2
:1000000028140020FD2F0008692D0008DB2D0008B2
:1000100000000000000000000000000000000000E0
:10002000000000000000000000000000DF2D0008BC
:100030000000000000000000E12D0008E32D000892
:100040006B1F0008112E0008B32C0008EB2D0008D0
:10005000DB2F0008E72F000829300008392E0008A0
:100060002B3000082D3000082F30000831300008F8
:1000700033300008353000083730000839300008C8
:100080003B3000083D3000083F3000084130000898
:100090004330000845300008473000084930000868
:1000A0004B3000084D3000084F3000085130000838
:1000B000533000085530000857300008816801228D
:1000C0000A4382607047826818239A430A43826019
:1000D00070474161704701607047020011807047AE
:1000E000006880B2704781B004490A6802430A6020
:1000F000096801400091009901B070473810024032
:10010000F1B58EB0052069460872002003900020EA
:100110000490002005900020079000200A90002005
:100120000990002008900020069000200B900020ED
:1001300000210CAA03C2083A002069464872002038
:100140006946488101F022FB002801D00E20D7E348
:1001500001F066FA01203F490870FF25AD023E4CD0
:10016000D8267602300021688902294001F010FB70
:10017000CF0A300021688902294001F009FBC80A32
:100180000A3087422CD28021090179430091300046
:1001900021688902294001F0FBFA2168890229407F
:1001A0004843009908188021090540180490002050
:1001B000059005988021090188420FD2049805997D
:1001C00040182649086004980599401803C80CAAED
:1001D00003C2083A059808300590EAE77F1CC8E793
:1001E00000201C490870300021688902294001F074
:1001F000CFFAC80A0390039F300021688902294082
:1002000001F0C6FAC80A0A3087423BD2039F802019
:1002100000014743300021688902294001F0B8FA03
:10022000216889022940484338188021090540186F
:100230000490049801F0A4F9694608726846007AAF
:10024000022803D06846007A012809D10A98401C88
:100250000A9013E027100020E075FF1F1410002003
:100260006846007A032809D10998002801D103982B
:100270000690039808900998401C09900398401C28
:100280000390B8E70A98002859D10998002852D05D
:100290000A2706980090300021688902294001F061
:1002A00077FAC90A0098401A0930390001F070FA4B
:1002B0000091300021688902294001F069FAC80ADA
:1002C0000099091880200001414300913000216805
:1002D0008902294001F05CFA2168890229404843DB
:1002E0000099081880210905401801F049F90428EF
:1002F00025D10121019108980090300021688902E0
:10030000294001F045FAC90A0098401A401C3900FA
:1003100001F03EFA0F00300021688902294001F007
:1003200037FAC80A39000818019901F095F8002831
:1003300005D00220E4E2002000F0E4FAE0E2300020
:1003400021688902294001F023FACF0A3000216890
:100350008902294001F01CFAC80A0A30874200D3FA
:10036000B0E08021090179430091300021688902C1
:10037000294001F00DFA216889022940484300997B
:1003800008188021090540180490049801F0F8F835
:10039000694608726846007A012800D090E0300073
:1003A00021688902294001F0F3F9C80A87423ED04A
:1003B000300021688902294001F0EAF9C80A401D8D
:1003C000874234D0300021688902294001F0E0F9E9
:1003D000C80A381A09300A2101F0DAF90091300010
:1003E00021688902294001F0D3F9C80A0099091847
:1003F000802000014143009130002168890229409A
:1004000001F0C6F92168890229404843009908187B
:1004100080210905401801F0B3F8032803D100201A
:100420006946487237E001206946487233E030007F
:1004300021688902294001F0ABF9C80A381A401C2A
:100440000A2101F0A5F900913000216889022940B4
:1004500001F09EF9C80A0099091880200001414363
:100460000091300021688902294001F091F921684A
:10047000890229404843009908188021090540183D
:1004800001F07EF8002803D100206946487202E09E
:100490000120694648726846407A002810D1380029
:1004A000A249087001220021002000F0B1FD802146
:1004B0004900884201D00C2022E201200B9001E08B
:1004C0007F1C43E700200790300021688902294003
:1004D00001F05EF9C80A0390039F30002168890289
:1004E000294001F055F9C80A0A30874200D3BCE020
:1004F00080273F050399802000014143009130008F
:1005000021688902294001F043F9216889022940C4
:10051000484300990818C0190490049801F030F875
:10052000694608726846007A022800D093E0039872
:100530000090300021688902294001F029F9C90A98
:100540000098884242D003980090300021688902C8
:10055000294001F01DF9C90A491D0098884235D08B
:1005600003980090300021688902294001F010F9B9
:10057000C90A0098401A09300A2101F009F90091CE
:10058000300021688902294001F002F9C80A009967
:100590000918802000014143009130002168890240
:1005A000294001F0F5F82168890229404843009963
:1005B0000818C01900F0E4FF032803D100206946A1
:1005C000487238E001206946487234E00398009090
:1005D000300021688902294001F0DAF8C90A009840
:1005E000401A401C0A2101F0D3F800913000216824
:1005F0008902294001F0CCF8C80A00990918802026
:10060000000141430091300021688902294001F036
:10061000BFF8216889022940484300990818C01989
:1006200000F0AEFF002803D100206946487202E0C6
:100630000120694648726846407A002811D107981F
:10064000002806D10398394908700798401C079084
:1006500007E00A2054E16846007A032801D1039894
:1006600008900398401C039036E70798002822D191
:100670002E4F08980090300021688902294001F02F
:1006800087F8C90A0098401A401C0A2101F080F836
:100690000091300021688902294001F079F8C80AE8
:1006A0000099081838700221387800F0D5FE00282B
:1006B00001D0022024E1CD4F002038802020CC49F9
:1006C00008600590059880210901884230D21748BA
:1006D00001788020000141430091300021688902A7
:1006E000294001F055F821688902294048430099C2
:1006F00008180599401880210905401803C80CAA5C
:1007000003C2083A0CA803C8C7A20CCA994201D177
:1007100090420DD03888401C3880B54801680831B7
:100720000160059808300590CCE700BF2610002036
:10073000BF4800780390BE48007806900398009068
:10074000300021688902294001F022F8C90A009886
:1007500088424AD0039800903000216889022940DD
:1007600001F016F8C90A491D009888423DD0039847
:100770000090300021688902294001F009F8C90A77
:100780000098401A09300A2101F002F80091300067
:1007900021688902294000F0FBFFC80A0099081867
:1007A00003900399802000014143009130002168AB
:1007B0008902294000F0ECFF216889022940484362
:1007C0000099081880210905401800F0D9FE6946F3
:1007D00008726846007A032805D13888FC303880D2
:1007E00003980690AAE70A208AE09148077830002B
:1007F00021688902294000F0CBFFC80A381A401C42
:100800000A2100F0C5FF0F0030002168890229404D
:1008100000F0BEFFC80A39000F1880210901794392
:100820000091300021688902294000F0B1FF216861
:100830008902294048430099081880210905401879
:1008400004900698874245D00EA80078002807D16A
:100850000121380000F02FFF002810D001204FE0C8
:1008600080210901049800F0C1FA102807D1012164
:10087000380000F020FF002801D0012040E03000C7
:1008800021688902294000F083FFC80A381A401CF9
:100890000A2100F07DFF0F00300021688902294005
:1008A00000F076FFC80A39000F188021090179434A
:1008B0000091300021688902294000F069FF216819
:1008C00089022940484300990818802109054018E9
:1008D0000490B6E700F01CFF0B9800280FD1002110
:1008E000002000F05FFD694648810298001400284E
:1008F00005D002980014122801D0022000E0002048
:100900000FB0F0BDF1B582B00020009000F03EFFC6
:10091000002801D00E2067E0FF26B6028D4DD827B3
:100920007F02380029688902314000F031FFCC0A8B
:10093000380029688902314000F02AFFC80A0A30CD
:1009400084422ED26846007A002807D10121200077
:1009500000F0B1FE002822D0012045E080210901ED
:10096000019161430091380029688902314000F00B
:100970000FFF2968890231404843009908188021F7
:1009800009054018019900F031FA102807D101211A
:10099000200000F090FE002801D0012024E0641C1B
:1009A000C6E700F0B5FE02210091380029688902EF
:1009B000314000F0EDFEC80A009900F04DFD00281E
:1009C00001D0022010E00020084908803800296882
:1009D00089020E40310000F0DBFEC80A144908709D
:1009E0002020034908600020FEBD000024100020E4
:1009F000000000207CB504000D00200080B200281B
:100A00000FD0200080B2924988420AD0002600967A
:100A10006946200080B200F023F90099296000B2F5
:100A200000E0082076BD0000FFFFFFFFFFFFFFFF93
:100A30002610002038B505000C00280080B20028E0
:100A40000AD0280080B28249884205D021002800BF
:100A500080B200F0B3F900E0082032BDF8B584B0F0
:100A600000200500009003900290052001006A46D6
:100A7000517169460871D8204002364909688A02D6
:100A8000FF218902114000F083FECC0AFF26B60246
:100A9000304DD820400229688902314000F078FEAC
:100AA000C80A0A30844251D280273F016743D820C8
:100AB000400229688902314000F06AFE29688902F3
:100AC00031404843381880210905401803900398A5
:100AD00000F056FD6946487168464079042833D1D4
:100AE00027007F1C2000401D874221D28021090160
:100AF00079430091D820400229688902314000F0F2
:100B000047FE29688902314048430099081880212E
:100B1000090540180290029800F032FD69460871FC
:100B200068460079042801D0052010E07F1CD9E731
:100B30000521200000F0BFFD002801D0012006E0C3
:100B400000F0E6FD002002E0641D9FE7052005B0EF
:100B5000F0BD0000E075FF1FF8B584B0002005006F
:100B6000009003900290052001006A465171694689
:100B70000871D8204002A84909688A02FF21890229
:100B8000114000F005FECC0AFF26B602A24DD82087
:100B9000400229688902314000F0FAFDC80A0A3093
:100BA000844251D280273F016743D8204002296800
:100BB0008902314000F0ECFD296889023140484348
:100BC00038188021090540180390039800F0D8FCDC
:100BD0006946487168464079042833D127007F1C54
:100BE0002000401D874221D28021090179430091D4
:100BF000D820400229688902314000F0C9FD2968E7
:100C0000890231404843009908188021090540189D
:100C10000290029800F0B4FC6946087168460079B9
:100C2000042801D0052010E07F1CD9E70521200011
:100C300000F059FD002801D0012006E000F068FD19
:100C4000002002E0641D9FE7052005B0F0BD000014
:100C5000FFFF000010B50400200000F05AFD10BD99
:100C6000F3B585B000240025002000900290060016
:100C70000390052069460871002000F0CFF80700B6
:100C80000020C043874201D1032095E0802000016D
:100C900078430090D82040025F4909688A02FF210A
:100CA0008902114000F074FD01005B480068800279
:100CB000FF2292020240514300984018802109050A
:100CC00040180290029800F05BFC69460871684683
:100CD0000079022807D068460079032803D06846C7
:100CE0000079042867D1FF20C0000600202E22D3FF
:100CF0000298801903C804000D00C0A003C88D42EB
:100D000001D1844215D020006946898A80B2884288
:100D10000FD1210089B2280000F091FC03900398C4
:100D20002100090C89B2884203D106980560002091
:100D300042E0083EDAE7D8204002374909688A02D3
:100D4000FF218902114000F023FDC80A381A09303A
:100D50000A2100F01DFD0F00D82040022E4909682D
:100D60008A02FF218902114000F012FDC80A3900F1
:100D70000F188020000178430090D82040022649B7
:100D800009688A02FF218902114000F001FD01007B
:100D9000214800688002FF229202024051430098DD
:100DA00040188021090540180290029800F0E8FBE5
:100DB000694608718BE7072007B0F0BDF8B506005B
:100DC0000D0000272900300080B200F0EBFA04008B
:100DD000200000B2122806D100222900300080B283
:100DE00000F016F901E0200000B2F2BDF0B50300FA
:100DF0000A001127002696420BD2981903C87FA437
:100E000030CCA94201D1A04201D010200700083601
:100E1000F1E7380000B2F0BDE075FF1FF1B584B016
:100E200005206946087169464871002003900090CA
:100E3000029074480678FF25AD02734C80273F016D
:100E40007743D820400221688902294000F0A0FCA5
:100E50002168890229404843381880210905401833
:100E600000F08EFB69460871D82040022168890293
:100E7000294000F08DFCC80A301A401C0A2100F0FD
:100E800087FC0F00D820400221688902294000F029
:100E90007FFCC80A39000F188021090179430091AD
:100EA000D820400221688902294000F071FC2168A5
:100EB00089022940484300990818802109054018F3
:100EC00000F05EFB69464871D82040022168890223
:100ED000294000F05DFCC80A301A09300A2100F0F0
:100EE00057FC0091D8204002216889020D4029005A
:100EF00000F04EFCC80A00990D186846007C0028D6
:100F00005FD002286CD074D268460079022828D1BC
:100F10003E4C206880210901884201D230006AE0FD
:100F200068464079042806D1FFF798FD002802D0D2
:100F30000020C0435FE00321300000F08DFA00285C
:100F400002D00020C04356E00221380000F084FAAD
:100F5000002802D00020C0434DE02020206038004F
:100F600049E068460079012828D1284C2068802172
:100F70000901884201D230003DE0684640790428EA
:100F800006D1FFF76BFD002802D00020C04332E0FD
:100F90000321300000F060FA002802D00020C04396
:100FA00029E00121380000F057FA002802D0002083
:100FB000C04320E02020206038001CE00020C04317
:100FC00019E068460079022801D1300013E0684634
:100FD0000079012801D128000DE00020C0430AE07B
:100FE00068464079002801D1380004E00020C04361
:100FF00001E00020C04305B0F0BD0000FFFFFFFF8F
:10100000FFFFFFFF26100020E075FF1F00000020FB
:10101000F7B588B005270020029000250020039036
:101020000020002106AA03C2083A00206946C880B1
:10103000002004900AA80078002801D1022000E0D6
:101040000120C0B2FFF7EAFE04000020C043844242
:1010500001D104209CE10020CE4908802000CE4927
:1010600008702020CD4908600AA80078002807D120
:101070000121200000F0F0F9002801D0022087E1D2
:10108000FF26B602C64DD8204002296889023140A9
:1010900000F07EFBC80A201A09300A2100F078FB14
:1010A0000C00D820400229688902314000F070FB12
:1010B000C80A21000C188021090161430091D82041
:1010C000400229688902314000F062FB29688902E8
:1010D00031404843009908188021090540180290C2
:1010E000029800F04DFA69460871684600790228B6
:1010F00004D068460079042800D081E06846007971
:10110000022807D10421200000F0A6F9002801D010
:1011100002203DE1D820400229688902314000F0D8
:1011200037FBC80A201A09300A2100F031FB0C00F5
:10113000D820400229688902314000F029FBC80A02
:1011400021000C1880273F016743D82040022968FE
:101150008902314000F01CFB296889023140484374
:1011600038188021090540180290029800F008FA0A
:101170006946087168460079032803D068460079FB
:10118000042847D168460079032807D104212000AC
:1011900000F062F9002801D00220F9E0D8277F0290
:1011A000380029688902314000F0F2FAC80A201A92
:1011B00009300A2100F0ECFA0C0038002968890295
:1011C000314000F0E5FAC80A21000C18802109011D
:1011D00061430091380029688902314000F0D8FA53
:1011E000296889023140484300990818802109057F
:1011F00040180290029800F0C3F969460871B9E7F7
:101200000AA80078012803D168460079032801D094
:101210000A20BDE00AA80078012874D12027802088
:10122000000187422CD25C480178802000014143B4
:101230000091D820400229688902314000F0A8FAC4
:10124000296889023140484300990818C019802153
:101250000905401803C806AA03C2083A06A803C82D
:101260007BA20CCA994201D1904209D04948018819
:10127000491C018049480168083101600837CEE700
:101280004548007804000020039003980A283AD2C9
:10129000D8277F02380029688902314000F078FAA7
:1012A000C80A201A09300A2100F072FA0C0038002E
:1012B00029688902314000F06BFAC80A21000C1835
:1012C0008021090161430091380029688902314079
:1012D00000F05EFA296889023140484300990818F5
:1012E00080210905401800F04BF9694608716846ED
:1012F0000079032807D127480188FC310180039831
:10130000401C0390C1E709996846008C00F04AF838
:10131000002801D002203BE01E480188032902D3A7
:101320000088851E00E001259448854225D2684644
:10133000008C85421FD004A9280080B2FFF790FCE2
:101340006946C8800198001400280DD1049928002E
:1013500080B200F027F86946C88001980014002880
:1013600009D00198001413E001980014072802D056
:10137000019800140CE06D1CD6E7022106480078A5
:1013800000F06AF8002801D0022001E0802040002F
:101390000BB0F0BD2410002026100020000000201B
:1013A000E075FF1FF3B585B000240394AE4E30887E
:1013B000AE49884201D3122047E00120FFF72EFDFD
:1013C0000190029401980021C943884201D1032071
:1013D0003BE0FF25AD02A64F01998020000141436B
:1013E0000091D820400239688902294000F0D0F9E4
:1013F000396889020D406843009908188021090561
:1014000047180698002803D16846808A002805D02E
:101410006846818A069800F012F904009A4D0699F0
:1014200020046A46928A002302430B432868381836
:1014300000F036F9002801D0022006E028680830C4
:1014400028603088401C3080002007B0F0BD0000CC
:10145000FFFFFFFFFFFFFFFFF3B585B00400002093
:101460000390029001900490FF25AD02804E8027EA
:101470003F01210079430091D82040023168890260
:10148000294000F085F931688902294048430099D4
:101490000818802109054018039021007943009124
:1014A000D820400231688902294000F071F9316882
:1014B000890229404843009908186E494018029053
:1014C000210079430091D8204002316889022940E7
:1014D00000F05EF9316889022940484300990818F4
:1014E0006549401801906743D8204002316889025D
:1014F000294000F04DF9316889020D4068433818E1
:101500005E4945186846007E012806D033D303287B
:101510001DD00FD3042824D02DE05CA20CCA039860
:1015200000F0BEF8002801D0022025E02000544938
:10153000087020E055A20CCA029800F0B1F800280B
:1015400001D0022018E020004D49087013E04FA29E
:101550000CCA019800F0A4F8002801D002200BE08A
:1015600009E04AA20CCA280000F09AF8002801D02D
:10157000022001E0FFE7002007B0F0BDE903000012
:10158000F8B588B004000020002104AA03C2083A7C
:1015900002AA03C2083A6A4603C2083A0CCC083CC5
:1015A00004AD0CC5083D220008320CCA02AD0CC5C2
:1015B000083D220010320CCA6D460CC5083D2200C1
:1015C00018320CCA06AD0CC5083D06AA0CCA31A6D5
:1015D000C0CEBB4201D1B24201D004201EE0684619
:1015E00003C82CA20CCA994201D1904201D0032019
:1015F00014E002A803C827A20CCA994201D1904264
:1016000001D002200AE004A803C822A20CCA994211
:1016100001D1904201D0012000E0002009B0F0BDCE
:1016200010B580204001FEF75EFD164C1B492000DE
:10163000FEF74FFD08212000FEF745FD10BD70B5F7
:1016400006000C000F4D2800FEF738FD3100280081
:10165000FEF741FD210089B22800FEF73EFD28007B
:10166000FEF73EFD70BD000024100020EC040000D9
:10167000E075FF1F080000081000000818000008AF
:10168000261000200030024000000020AAAAAAAACA
:10169000AAAAAAAAFFFFFFFFFFFFFFFF0580000025
:1016A00070B5060014001D0022002B00310001203F
:1016B00000F0CEF870BD7FB506000C0000200500DC
:1016C000009002200190200080B2039002966946AB
:1016D00001A800F0E7F9002801D00120050028004A
:1016E00000B204B070BD7FB505000C0000260220DA
:1016F0000090200080B202900195684600F01DFA2B
:10170000002801D001200600300000B204B070BDF6
:10171000704730B50200002528000123184C2168CD
:101720001943216015601100091D0D6015490D68F0
:10173000ED03FBD40D68AD070ED40D682D070BD457
:101740000D68ED0608D40D68AD0605D40D686D066C
:1017500002D40D682D0601D50D2528000D681D4009
:10176000002D00D00B6021680123994321600649B8
:101770000B68802424061C430C6000B230BD0000BE
:101780001420024010200240182002400020704720
:101790000022030A8B420BD203098B4219D2430861
:1017A0008B422ED2411A00D2014652411046704758
:1017B000FF2209023FD012068B4205D31212090202
:1017C0008B4201D31212090203098B4219D300E0A4
:1017D000090AC3098B4201D3CB01C01A52418309C4
:1017E0008B4201D38B01C01A524143098B4201D372
:1017F0004B01C01A524103098B4201D30B01C01A9D
:101800005241C3088B4201D3CB00C01A5241830816
:101810008B4201D38B00C01A524143088B4201D343
:101820004B00C01A5241884200D3401A5241CFD2D5
:1018300001461046704708B500F0CCF908BD2000FD
:1018400008B4024B9C4608BC6047C0461900002003
:10185000F3B581B00CB4614D2878012801D1022084
:1018600029E00120287000246C60FA27BF003800AE
:1018700000F0B6F806003000C0B2002818D1039876
:10188000012806D168460CC80838049800F0E2F830
:1018900005E0684603C801000498FFF7D1FF38004F
:1018A00000F09EF8060073480168039A91430160B6
:1018B0002C703000C0B205B0F0BDFEB50020C043B2
:1018C00001906E4F39686E4808406B4C2168802249
:1018D000D205114001430091404D664E3068A96821
:1018E00088433060A86867490140002902D0E86851
:1018F000019006E0287A06210140002901D02869DC
:101900000190009800281CD0686800990143696024
:101910000098800F8007002805D020680099890F63
:10192000890701432160009880008008002803D0C7
:1019300000988000800838600020A860019800F0BE
:101940004AF9012039680140002918D03860A86898
:1019500002280FD16869401E68616869002806D0B6
:101960002869401C2861286900F01DF904E0002066
:10197000A86001E00020A860019800F017FAA868AC
:10198000002809D1206840490140216030683F4962
:101990000140316000202870F7BD00B500203549B6
:1019A0000A68002A09D53A4A3A4B13603A4B136049
:1019B0000968002901D501210800C0B200BD00B5A9
:1019C00001202C490A6880231B0613430B60096819
:1019D000002901D500210800C0B200BDFC0F002085
:1019E000F1B582B000F0A2FA02994418234D28689C
:1019F000C00305D500F09AFAA042F7D3032028E0EF
:101A000028681F4F0740254828601B48016880222E
:101A1000D205114000910099002906D00168009A72
:101A20000A4302603800009F0743002F03D01C4880
:101A3000476001200DE000F079FA02994618286805
:101A4000400305D500F072FAB042F8D3032000E05D
:101A50000020FEBD30B4010006480468012525437E
:101A600005600A60BFF36F8F0800001D036030BC83
:101A7000704700001420024018200240102002404D
:101A8000FAC3000001000400FFFFFFFEFFFFFFFCA0
:101A90000820024023016745AB89EFCDFBC300005E
:101AA000FC0F0020F3B581B045480078012801D132
:101AB000022041E00120424908700025404845606D
:101AC000FA27BF003800FFF78BFF06003000C0B2D6
:101AD00000282DD101980068042806D100F05DF897
:101AE0003800FFF77DFF060022E00020C043029986
:101AF000086001984068040001984068019989686D
:101B0000401884420FD2200000F04DF83800FFF753
:101B100067FF06003000C0B2002802D002980460BF
:101B200001E0641CE8E72748016802229143016054
:101B3000234805703000C0B2FEBDF8B50400204D4A
:101B40002878012801D1022026E0012028700026F3
:101B50006E602068A860FA208000FFF741FF070050
:101B60003800C0B2002801D02E7013E0154801687B
:101B7000C02292040A4302602068042803D12E6127
:101B800000F00BF806E0A068686160682861606892
:101B900000F009F83800C0B2F2BD0A4801680A4AEC
:101BA0000A430260704710B4064A13680749194097
:101BB000C3000B43064C1C43146010BC704700006C
:101BC000FC0F0020142002400400010007FEFFFF6C
:101BD0000200010070477047FEB5002400F0ACF928
:101BE00000F007F900220021032000F02AFA032068
:101BF00000F031FAFFF7D1FE80204005B7490A68AE
:101C000002430A600968084000900098022000F032
:101C100089FA00F02BF9002000F0AEFA002000F065
:101C2000ABFA002000F0E2FA002000F0DFFAAC4846
:101C30000168802252040A430260AA480168C9056B
:101C400020D4002000F0C0FA642000F0F9FA00204F
:101C500000F0CCFA642000F0F3FA002000F0B4FAAF
:101C6000642000F0EDFA002000F0C0FA0020FEF73A
:101C700047FA69468880019800B200281ED000F01B
:101C80004DF91BE09849994A0A600068800701D520
:101C900097480860002000F097FA642000F0D0FA1E
:101CA000002000F0A3FA0120FEF72AFA6946888096
:101CB000019800B2002801D000F030F901208D49D0
:101CC00008608C480068022857D28B4C01202060A5
:101CD000206802284CD2894D28680128FBD0854F06
:101CE000216838684143206880B2FEF7A3FE694648
:101CF0008880216838684143206880B2FEF79AFEE8
:101D0000694688807E4E019909B2009120680421BD
:101D100048433118091F206880B2FEF76BFE009916
:101D2000084369468880206839684843216804224E
:101D300051437118091F0968884201D000F0EEF87C
:101D4000019800B2C00508D501202860019D2DB280
:101D5000FEF702FF284369468880019800B2C0B2AE
:101D6000FF2801D100F0DAF82068401C2060AFE7BE
:101D700060480168491C0160A3E7FFF720FE0020CE
:101D800000F046FA5F4800F05BFA00F086F80220A7
:101D900000F0B7F9594800680128FBD0544852496F
:101DA000086000F0C6F900F0B9F8E8E7F8B50400FB
:101DB000FF25AD02544ED8277F02380031688902D2
:101DC0002940FFF7E5FCC80A001D84420AD038000C
:101DD000316889020D402900FFF7DAFCC80A093092
:101DE000844201D100F001F8F1BD002043490860B0
:101DF000704738B592B03822002104A800F036FAB6
:101E000010220021684600F031FA8020800000F0A6
:101E100037FA02240494802040000790002508959A
:101E2000402009900B940C940D9508200E90802072
:101E300080020F90802080041090802080051190F7
:101E400004A800F049FA002801D000F067F8072044
:101E500000900194029503950221684600F0ACFCC5
:101E6000002801D000F05AF813B030BDE0B56C2066
:101E7000009026480190684600F006F9002801D03D
:101E800000F04CF800F037F900220021012000F0AA
:101E9000D8F8012000F0DFF807BD80B586B0042037
:101EA0001B490A6802430A600968084000900098CC
:101EB000184802900020039080208001019001A921
:101EC000154800F0B3FD00220221072000F0B9F808
:101ED000072000F0C0F807B000BD00003C10024031
:101EE00018200240107000401870004000010100EE
:101EF000020001001C100020040000201810002027
:101F00005C000020B80B0000E075FF1F010001001D
:101F100034100240000021100008005080B500205D
:101F200000F076F9642000F08BF9F8E701480068CA
:101F3000704700BF2010002010B500240948016838
:101F4000802252000A430260002000F0B3FE002805
:101F500002D00120040001E000F006F82000C0B229
:101F600010BD0000002002407047FEE700B50100F0
:101F700049B2002905D40121C206D20E91403C4A43
:101F8000116000BDF0B5020052B2002A1CD4032239
:101F9000384B040064B2A40804256C431C59FF2587
:101FA0001600064008277E43B540AC438D01EDB2D4
:101FB00002400826724395402543020052B292081F
:101FC000042462439D5022E00F242B4A0323050082
:101FD0006DB22540083DAD0804267543060076B273
:101FE0003440083CA408042674431659FF27BC4615
:101FF0001C00044008277C436746A740BE438C0171
:10200000E4B2034008277B439C4034435451F0BD65
:1020100010B50400601E80214904884201D30120CC
:102020000EE0601E1549086003210020C043FFF741
:10203000A9FF00201249086007201249086000200B
:1020400010BD70B505000C0016002100280040B23C
:10205000FFF798FF70BD10B50400200040B2FFF7F5
:1020600085FF10BD10B504002000FFF7D1FF10BDA3
:1020700000E100E000E400E01CED00E014E000E01E
:1020800018E000E010E000E070B50100314802689F
:102090007E239A430B68134303602F4A2F4803683B
:1020A000134003602E4B1C6814401C602D4C2568A7
:1020B000154025602C4D2E6832402A608022520245
:1020C0004E681640002E02D01E6816431E604B68F4
:1020D0009B0302D50368134303600879C00702D548
:1020E0002868104328600879800702D520680243D9
:1020F0002260002070BD1748016801220A43026077
:10210000704710B43B21194A13680C000440A343E4
:10211000040A1C431460164A1368014019431160F5
:1021200010BC704712490A683B2303409A430A6077
:102130007047074801680722914303220A4302605F
:102140000C48016804220A43026030BF7047000057
:102150000070004004700040FFFFFEFF8418024042
:102160008018024004180240001802400C70004021
:102170000870004010ED00E010B586B004002000AB
:10218000C0B2002808D101202A490A6802430A6027
:10219000096808400090009827482100C9B202222F
:1021A0005143405A019001200290002003900320E7
:1021B000049001A921482200D2B204235A43805836
:1021C00000F034FC06B010BD38B5040001221A48F6
:1021D0002100C9B202235943415A18482300DBB2F7
:1021E00004256B43C05800F014FD31BD38B5040020
:1021F000002211482100C9B202235943415A0F4815
:102200002300DBB204256B43C05800F002FD31BD52
:1022100010B5040008482100C9B202225143415AB6
:1022200006482200D2B204235A43805800F0FEFC34
:1022300010BD0000341002403E18000810000020BD
:1022400070B50400FFF772FE050026000020C043B1
:10225000864202D0044800683618FFF767FE401B2C
:10226000B042FAD370BD00BF0C00002010B50400CE
:10227000080011000200200000F04EFD200010BDFB
:1022800030B504000F4801680F4A0A40224302603B
:1022900080208000844212D10C4800680621484307
:1022A0000B49FFF775FA401C05000A480068400515
:1022B00005D5002D01D06D1EF7E7032000E00020BA
:1022C00030BD000000700040FFF9FFFF1400002047
:1022D00040420F0014700040F8B584B00400002C98
:1022E00001D1012053E201262068304000285CD053
:1022F000B3480068382101400291B2480068800765
:10230000800F01900298102802D10198032802D072
:102310000298082808D1AC480068800345D5606859
:10232000002842D1012032E28020400261688142CF
:1023300004D1A5490A681043086017E06168A0222B
:10234000D202914209D1A0490A688023DB021343DB
:102350000B600A681043086008E09B480168B04AB7
:102360000A4002600168AF4A0A40026060680028C3
:102370000DD0FFF7DBFD050093480068800314D4FF
:10238000FFF7D4FD401B6528F6D30320FFE1FFF7DC
:10239000CDFD05008C480068800306D5FFF7C6FD1B
:1023A000401B6528F6D30320F1E12078800776D51D
:1023B0008348006838210140029182480068800704
:1023C000800F01900298102802D10198022802D0B3
:1023D000029800282CD17C490868400504D5E068A3
:1023E000002801D10120D2E1BA480368BA4A1A4054
:1023F00063691B02134303600298002810D1086828
:10240000B64A0240206910430860B5480968C90A05
:102410004A07520F31009140FFF7BAF9BF490860EF
:10242000BF48006800F046FC002838D00120AEE12B
:10243000E068002821D0644F3868A849014020692D
:102440000843386038688021490001433960FFF74C
:102450006DFD05003868400506D4FFF767FD401B99
:102460000328F7D3032092E19A4801689A4A0A4068
:10247000616909021143016011E0534F3868A949AD
:1024800001403960FFF752FD05003868400506D568
:10249000FFF74CFD401B0328F7D3032077E120789A
:1024A000000734D54648006838210140182908D172
:1024B000B848006880072AD5A069002827D10120E4
:1024C00065E1A069002810D0B24F38683043386009
:1024D000FFF72CFD05003868800718D4FFF726FDAC
:1024E000401B0328F7D3032051E1AA4F386801218C
:1024F00088433860FFF71AFD05003868800706D565
:10250000FFF714FD401B0328F7D303203FE1042706
:1025100020683840002800D18FE00020694608700C
:10252000274800683821014020290AD19A480068CC
:10253000800700D481E0A068002800D07DE0012061
:1025400025E18020400595490968014000290AD10C
:1025500092490A6802430A60096808400390039898
:102560003000694608708E480068C00514D48C4855
:10257000006880214900014389480160FFF7D6FCCB
:10258000050087480068C00506D4FFF7CFFC401B54
:102590000328F6D30320FAE0A068012804D17E487E
:1025A00001680E4306601AE0A06805280ED17A483B
:1025B00001680F43076001680E4306600FE000BF2B
:1025C000081002400C1002400010024072480168DE
:1025D0000122914301600168042291430160A068D7
:1025E00000280ED0FFF7A2FC05006B4800688007AA
:1025F0001AD4FFF79BFC401B6A498842F5D303209D
:10260000C5E0FFF793FC05006348006880070BD521
:10261000FFF78CFC401B63498842F5D30320B6E0EA
:10262000FFFFFEFFFFFFFBFF68460078012804D193
:102630005A4801685C4A0A400260E069002800D1FB
:10264000A4E05A4800683821014010296CD0E069A4
:10265000022847D1564F3868564901403960FFF784
:1026600065FC00908026B60438683040002807D00A
:10267000FFF75CFC0099401A0328F3D3032086E09F
:10268000AD480168AB4A0A40216A1143626A0A43B5
:10269000A16A09021143E26A0A43216B1143626B8A
:1026A0000A4302603968802252040A433A60016892
:1026B000802252050A430260FFF738FC05003868A3
:1026C0003040002862D1FFF731FC401B0328F6D3CD
:1026D00003205CE004100240FF80FFFFFFC7FFFF04
:1026E0000024F400324E3068324901403160924893
:1026F00001680322914301600168904A0A40026028
:10270000FFF714FC0500306880013FD5FFF70EFC91
:10271000401B0328F7D3032039E000BF140000203A
:1027200008000020FFFEFFFFE069012801D1012021
:102730002DE081480068019001988007800F216A90
:10274000884221D1019870210140606A81421BD1E9
:102750000198FE21C9010140A06A0002814213D103
:102760000198F82189030140E06A81420CD1019867
:10277000E02109050140206B814205D10198400FFD
:102780004007616B884201D0012000E0002005B0C5
:10279000F0BD0000601002405C1002403C1002409E
:1027A0000070004089130000FFFFFFEF0810024097
:1027B00000100240FFFFFFFEF3B581B00400002CC3
:1027C00001D10120B5E007258A4E306828400299E2
:1027D000884216D23068072188430299014331604C
:1027E000FFF7A4FB0090306828400299884208D087
:1027F000FFF79CFB0099401A7F498842F3D30320DE
:1028000097E002202168014000290FD02178490774
:1028100005D57A490A68E023DB0113430B60774949
:102820000A68774B1340A2681A430A602178C907E7
:1028300045D56168012905D172480068800324D418
:10284000012076E06168022905D16E4800688001A8
:102850001BD401206DE06168002905D1694800683A
:10286000400512D4012064E06168032906D166495D
:1028700009680840002808D101205AE06349096826
:102880000840002801D1012053E05C4F386807213F
:102890008843616801433960FFF748FB009038685E
:1028A000382101406068C000814208D0FFF73EFB3C
:1028B0000099401A50498842F1D3032039E0029828
:1028C00031682940884216D230680721884302992E
:1028D00001433160FFF72AFB0090306828400299DD
:1028E000884208D0FFF722FB0099401A42498842EB
:1028F000F3D303201DE02078400706D53F48016848
:10290000434A0A40E1681143016000F019F8414967
:102910003A4A1268120A1207120F04235A43895CBA
:10292000C906C90EC8403C4908603C48006800F030
:10293000C1F9FEBD8C80C1110C100240FFFFFEEEFC
:10294000FCB538202D490A680240002A0CD101202C
:102950002C490968C90A4907490F884006003048D0
:102960003100FEF715FF44E00A680240082A01D151
:102970002C483EE00A680240102A2BD12A4F3868C2
:102980008007800F0190386800094007400F401C05
:102990000500019803280AD122482900FEF7F8FE15
:1029A0003968090A4906490E4843040009E01C48F1
:1029B0002900FEF7EDFE3968090A4906490E484329
:1029C00004003868400F401C009020000099FEF77A
:1029D000DFFE0EE00A680240202A02D180200002B9
:1029E00007E009680840182802D1FA20C00100E079
:1029F0000020F6BD002002408913000008100240AC
:102A0000FFF0FFFF00100240601002405C10024027
:102A1000FF8FFFFFB82E00081400002008000020E0
:102A20000024F40000127A000C100240FCB50200F1
:102A300000240868E040002800D1E9E0012508688A
:102A40002E00A640064001960198002800D1DDE046
:102A50004868022802D0486812281FD1E0080426DE
:102A600070431018076A072000970F26B446270006
:102A70000740042677436646BE40009FB743BC46E6
:102A80000E692700384004277843864067463E4356
:102A90003300E00804267043101803621768032609
:102AA000BC462700022047433000B84067468743B2
:102AB00000974F683740BC4620000227784367469E
:102AC00087400098074317604868012808D0486885
:102AD000022805D04868112802D04868122820D161
:102AE00093689C462300022043433000984063468D
:102AF00083430093C8688446230002204343604612
:102B00009840009B184300900098906053682800FC
:102B1000A0408343486800092840A04018430700AC
:102B20005760D3689C4623000220434330009840FE
:102B30006346834300938B689C46200002235843DE
:102B40006346834000980343D3604868C0005DD566
:102B50004D488446A708042047436046C05900906A
:102B60000F27BC46270030003840082778436746C7
:102B700087400098B843A027FF05BA4201D100253D
:102B80000DE0424B9A420AD0414B9A4201D10225B4
:102B900005E0404B9A4201D1350000E005252300B5
:102BA0001E4008235E43B54005433748A30804266A
:102BB0007343C550384B1868019EB0434E68F60306
:102BC00002D50500019828431860344D2B68019EFA
:102BD000B3434E68B60302D51800019B03432B6034
:102BE0002F4D2868019EB0434E68F60202D50300BF
:102BF0000198184328602B4D2B68019EB3434E6803
:102C0000B60202D51800019B03432B60641C10E739
:102C1000F3BD00B51300DBB2002B03D00B009BB259
:102C2000836102E00B009BB2836200BD00B5426984
:102C30000B009BB21A40002A03D00A0092B28262B3
:102C400002E00A0092B2826100BD10B5040016488D
:102C50000168220092B21140002906D0210089B2F9
:102C60000160200080B200F023F8104801682200C3
:102C700092B21140002906D0210089B201602000E3
:102C800080B200F070F810BD6018024000040050DF
:102C900000080050000C00508018024084180240C8
:102CA00000180240041802400C180240101802409C
:102CB0007047FEE738B5050000241449086800286D
:102CC0001ED0FA2080000968FEF762FD010010485E
:102CD0000068FEF75DFDFFF7C5F900280DD1042D52
:102CE00008D2002229000020C043FFF7AAF90948B2
:102CF000056007E00120040004E00120040001E079
:102D0000012004002000C0B232BD00BF0C00002032
:102D100014000020080000201206130A1A43130CA6
:102D20001A4300BF094205D0830705D00270401C3A
:102D3000491EF9D1704700001300103906D330B492
:102D40001400150010393CC0FCD230BC490700D338
:102D50000CC000D504C0890002D30280801C002969
:102D600000D502707047704710B52C4801680029E3
:102D70002BD52B490978012921D12A4801682A4AF3
:102D8000914222D30168294A91421ED20068FDF780
:102D900061FF002820D0082025490A680240002A47
:102DA00013D020220B681340002B0ED080230C6818
:102DB0001C40002C09D008600A600B600CE0016820
:102DC000802212060A43026006E00020FFF720FA84
:102DD0002820FFF735FAF8E710BD00B5FEE7704789
:102DE000704780B500F02EF801BD10B58020C005F9
:102DF0000A4C21680140002902D021680843206064
:102E0000FEF75BFD2068802149040143216010BD6D
:102E100000B5084800680005FBD400BD182002403A
:102E2000271000201410002000B001080000020844
:102E3000102002401470004080B580208001FFF710
:102E400004FF01BD03480168034A12688918016044
:102E5000704700BF201000200C0000202000000060
:102E6000010000000400000001000000000000500C
:102E70000024F400F0B5002203000C000C4D2E6875
:102E80008027FF0237432F60EFF3108572B61600DC
:102E9000F6B2402E05D226681E60241D1B1D521C52
:102EA000F5E7044E3668F603FBD485F31088F0BDD1
:102EB000142002401020024000000000000000002A
:102EC0000000000000000000000000000000000002
:102ED00000000000000000000100000002000000EF
:102EE00003000000040000000600000007000000CE
:102EF000080000000900000070B40123002413E062
:102F00000168001D194202D04D466D1E49190C6022
:102F1000091D121F042AFAD20D00960701D50C8054
:102F2000AD1C1A4000D02C700268001D002AE7D1A9
:102F300070BC704730B401220EE00368C3184468C7
:102F40000830144202D04D466D1E64191D6825607C
:102F50001B1D241D091FF9D10168001D0029ECD19A
:102F600030BC704710B5074979441831064C7C4491
:102F7000163404E0081D0A68891888470100A14238
:102F8000F8D110BD08000000280000006DFFFFFF11
:102F9000CC0F00005C0000200000000099FFFFFF44
:102FA0005C000000B8FEFFFF0000002000000000F1
:102FB00000F00DF8002801D0FFF7D4FF00BF00BFDC
:102FC000002000BF00BFFEF707FE00F002F801205E
:102FD000704780B500F002F801BDFEE707463846AD
:102FE00000F002F8FBE7FEE780B500BF00BF024A31
:102FF00011001820ABBEFBE7260002000148804705
:10300000014800470D3000081D30000880200005F1
:10301000014908607047000008ED00E000BF00BFF4
:1030200000BF00BFFFF7C4FFFEE7FEE7FEE7FEE7D5
:10303000FEE7FEE7FEE7FEE7FEE7FEE7FEE7FEE768
:10304000FEE7FEE7FEE7FEE7FEE7FEE7FEE7FEE758
:08305000FEE7FEE7FEE7FEE7E4
:040000050800301DA2
:00000001FF
